:20000000004000207DEF000001C9011001C9011001C9011001C9011001C9011001C90110F2
:1C00200001C9011001C9011001C9011001C9011001C9011001C901103FC9011089
:20003C002DE9F04FADF12C0D01F074F9AE48AC4D4FF00009C846F5380790A868A94A49467F
:20005C004FF0FF3300F01AFC0028F6D0484605900DF11A0105AA06A80FF0E5FF002840F04B
:20007C008980BDF81800012710287ED128789DF81A10884279D1059C20884FF6FF718142AB
:20009C0073D02678913E5DD01F3E6ED1607816282CD020797E281DD07F280FD000904846E9
:2000BC004E4601904A46029640F23A510392B4A304963A46AEA00BF07DF834E02089009009
:2000DC004E4601964A46029240F235510396B6A30492EEE7207A00904E4601964FF4A66101
:2000FC00029603220396B7A30496E3E720794E4600904FF4A361019602220296C0A303967D
:20011C009BA0CDF810900BF055F8AE6A8EB94FF6FD708F498F4A00904B46102006F0BAFF19
:20013C00AE6AC3B22BB1217904F1080000F0AAFB1BE046F001063846AE6209F0B1FE4F460B
:20015C002C6112E060780E280FD1CDF8009048464E464C46019040F2FB413A460296C7A38C
:20017C00039483A004960BF025F8059810B10FB111F003FDE86800F089FB00287FF45DAF6D
:20019C00E86800F087FB07463E7A07F10904072E03D9103E00F0E282EEE2DFE816F08F0197
:2001BC00A7008D00EA026300E40245000800A86A4008C0F0E1822E69002E00F0DD82A878CC
:2001DC0006F10804401CA870BB49009472883379102006F05FFF5FFA80FABAF1160F14D043
:2001FC00AE6ABAF1040F10D036F00106AE6208D14FF6FD705649574A00900123102006F04B
:20021C0049FF504609F04CFEB6E2286900790090A8784E464C46019002220296B6A30394EC
:20023C0040F28451049670E2FE7A07F10904002E0CBFBDA0BFA000904E4640F24731484621
:20025C00019001220296BDA3039649A004960AF0B1FF48460090D84922884B46102006F070
:20027C0019FF89E2787A07F109040D2814BFC0A0C2A06678002E0CBFC3A1C8A10122CCA3E8
:20029C0000904E460191484602904FF47371039637A004960AF08EFF26780D3E09D0761E5E
:2002BC0040F06A8201200146641C224605F076FC62E201214846F7E7268841F21010224614
:2002DC00361A06D0103E40F0578220796188641DEBE710795188521D07F0A2FA4CE2C04618
:2002FC00580C00200F0000C0F00D002020880FF2143A0FF2243E0FF2383CB0F5895000F035
:20031C00A480103817D0103840F03682B4F8050048B1401E04D0401E08BFCDF820A004E0D4
:20033C00CDF820E001E0CDF820C0089EB0A040F27C414C46B9E0B4F8050068B1401E04D04A
:20035C00401E08BFCDF824A008E0CDF824E005E0BDE40000FF140100CDF824C0207901281D
:20037C0040F00A82099CD0A0D3A640F2D4419CE070726F6A6563745F7A65726F2E6300C0ED
:20039C0052656365766965642047415454204D6573736167652E204F70636F64653A2030B3
:2003BC00782530327800C0464D54552053697A65206368616E67653A2025642062797465B6
:2003DC007300C046466C6F7720636F6E74726F6C2076696F6C617465642E204F70636F6414
:2003FC0065206F66206F6666656E64696E6720415454206D73673A2030782530327800C086
:20041C004F7574676F696E67205246204649464F2066756C6C2E2052652D736368656475F7
:20043C006C65207472616E736D697373696F6E206F66206D73672077697468206F70636F7C
:20045C0064652030782530327800B4F8050048B1401E04D0401E08BFCDF828A004E0CDF8B9
:20047C0028E001E0CDF828C02679CEB1761E40F08381C3A640F25B4115E0C04648434920BE
:20049C00436F6D6D616E6420436F6D706C657465204576656E74207265636569766564009F
:2004BC00CBA64FF48A61CCA00A9C0090019602944B460393CCA31BE0DDFE0010268841F255
:2004DC001010361A00F0BD80203E40F055812679002E73D0761E40F04F8160790090A079D9
:2004FC000190E079C7A34E46029040F2A64103964A46049208E1C0465265747279696E674B
:20051C00206D6573736167652077697468206F70636F6465203078253032782E2041747406
:20053C00656D707420256400446973706C6179696E6700C053656E64696E6700426F6E6421
:20055C004D6772205265717565737465642070617373636F64652E2057652061726520256E
:20057C00732070617373636F6465202530366400427574746F6E203100C046C04275747439
:20059C006F6E203000C046C01B5B33336D72656C65617365641B5B306D00C0461B5B3332CA
:2005BC006D707265737365641B5B306D00C046C0257320257300C0467500010072484946CE
:2005DC0028220CF0D9FB7048641D272221460BF067F96D4C7CA634A000904A46019640F209
:2005FC009F41029496A303924E4604968CE0C04654656D70657261747572652053657276AD
:20061C0069636500496E6469636174696F6E7320656E61626C6564004E6F74696669636100
:20063C0074696F6E7320656E61626C656400C0464E6F74692F496E642064697361626C65A8
:20065C006400A178079A601D0DF0ACF92079661D0FF2082B0FF2082A00285AD0401E2FD00F
:20067C00401E40F0898053A00090824854A3019340F21A41012202904846039070A30490E5
:20069C007D480AF097FDA869627907210FF056F9A869627906210FF051F9367806B1D346AF
:2006BC0040F223414C4625E044617461205365727669636500C046C053747265616D00C094
:2006DC003CA000903EA401946A4C40F20C4101225BA302944C460394674804940AF06AFD5E
:2006FC00A869327807210FF029F9367806B1D34640F214412BA00090CDF804B04E460296D5
:20071C0003944B46049357A301225B480AF052FD32E028A0009021A40194564C40F2FD312F
:20073C00012247A302944C4603945348CDF810800AF040FDA869327806210FF0FFF8367824
:20075C0006B1D34611A00090CDF804B0CDF808804E46039640F205410494D4E708204946F7
:20077C0003F02CFE08E007F10901484605F0EEFD02E0787A06F02CFA38460FF0B5FAF9E4EF
:20079C00425554544F4E3100F00D00201B5B33316D4C4544301B5B306D00C0464C454430A9
:2007BC0000C046C01B5B33326D4C4544311B5B306D00C0464C45442053657276696365002A
:2007DC004C45443100C046C0537472696E6700C0425554544F4E3000427574746F6E2053FF
:2007FC0065727669636500C043434344204368616E6765206D73673A2025732025733A20C1
:20081C00257300C056616C7565204368616E6765206D73673A20446174612053657276699D
:20083C0063652053747265616D3A20253032783A253032783A253032782E2E2E00C046C02D
:20085C0056616C7565204368616E6765206D73673A2025732025733A202573006F666600DB
:20087C006F6E00C05475726E696E6720257320257300C046FB0C00208C030000DFF800F0E5
:20089C00F99B0110DFF800F089840110DFF800F04FBF0110DFF800F0F1BF01102DE9F04FEF
:2008BC00D44C04F118012046ADF1340D0EF042F800264FF6FF7066700121208204F1A40064
:2008DC000FF094FA022104F1C8000FF08FFA042104F1EC000FF08AFA4FF0040A04F14408F0
:2008FC0010224046314684F802A00CF045FA04F154091022484631460CF03EFA04F11C077F
:20091C003E6004F10A052E70E671267207206072CDF80080DFF8F8820222102003464146D9
:20093C0006F0B8FB102003224146CDF80090034606F0B0FB1020524641460097134606F0A2
:20095C00A9FB4FF0080B4FF0030905F12A00079005F17900089005F11E00099005F15A007F
:20097C000A9024350B9517E06078A28FE18FB4F84050B4F8423006280ED1ADF80A20ADF87D
:20099C000C10ADF80E50B948ADF8103011F047F9012002A90BF06EFEA069B34A31464FF006
:2009BC00FF33FFF76BFF071CF6D0059606A80DF11A0105AA0FF037FB002840F0BD81BDF813
:2009DC0018102078102940F0B3819DF81A10884240F0AE81059D29884FF6FF728A4200F0F1
:2009FC009C812B78A23B00F07F812E3B40F0A081A978B046002900F03B81891E00F00A8186
:200A1C00491E012940F2D980891E00F09C80491E6FD0491E5CD0083900F05681891E40F0D3
:200A3C00598194F83A30A888052BADF8080047D001208DF812008D4811F0F1F894F83A0069
:200A5C0001281ED004281CD003280DD002280BD00598C188ADF80A100189ADF80C10418984
:200A7C00ADF80E10818927E0A08FE58FADF80A00B4F84030ADF80C50B4F84210ADF80E3036
:200A9C001AE0A08FE9888842D8BF081CADF80A002989E08F8842D8BF081CADF80C00698923
:200ABC00B4F840008842D8BF081CADF80E00A989B4F84200884200DC0846ADF8100001E04C
:200ADC008DF81260A849102002AA06F0E3FA01E1A64811F0A4F86B78002B40F0FB80E888CD
:200AFC0060822889A0826889E082604810F08CFEF0E0AA88B449102006F0CCFA079841468F
:200B1C0006220CF039F96682A682E682A8792073564811F084F8954811F081F84FF001087D
:200B3C004FF6FF702379208253B9A879082812BF84F801A005206070404610F08DFEC9E0AD
:200B5C0084F80190C6E06B787BBB291D07980A680260898881800623637068892082E889E2
:200B7C006082288AA082688AE082E878E07294F83A00012818BF02280BD1994910201F227E
:200B9C0006F088FA4FF47A7180B2414337480EF029FF688900909149CDF804A0EA781020E2
:200BBC002D1D2B4606F076FA97E06878312840F08880E67084F801A08FE06B78002B40F0F0
:200BDC008080A878E3896178032815D0E078257923B9012814BF2671E67006E0054304D0C7
:200BFC00804819460EF0FEFE61780729E2D10620607072E088110020062907D0E578002D6B
:200C1C0008BF84F8019068D00220F1E70720EFE70D1001006B78002B53D1EB78617893B9DD
:200C3C0002291DD007291BD0062902D12079012816D1032914D06B4810F0E6FD80B90120BA
:200C5C0010F00AFE0CE00FF03FFC0246A07962490090089843460190102006F01BFA6870E1
:200C7C006D78002D2DD135E007000080501200206B7833BB5C4857490090022210200346E8
:200C9C0006F008FA59484A46524900901020034606F000FAED1C099829680160A98801238A
:200CBC008180207863700FF00FFC024601230A9D6079494900901020019506F0EBF9C0B282
:200CDC0058B184F801B008E0AA8841491020052306F0E0F9B8F1010F2AD1256A45B32D6827
:200CFC0035B36078A84723E06879132820D12889012808D1607B022805D11C4810F08FFF99
:200D1C000FF0C2F914E036491020052206F0C2F981B216480EF066FE0AE06888C00B07D310
:200D3C00334852462B4900901346102006F0B2F9059808B110F021FF2579E078790830D366
:200D5C0055EA00032DD0204600788DB9E179257A8DF808100B9A8DF8095013680DF10A0573
:200D7C002B609288AA8005E005160110741200208DF80890617A8DF81010A17A8DF8111073
:200D9C000FF0A2FB1149024602AB102006F082F938B1256A84F801B01DB12D680DB1584647
:200DBC00A847B80803D3134930460BF063FCF808FFF4F2AD607B401E3FF4D6AD401E7FF414
:200DDC00EBAD0FF061F9E7E501E9000059440110C1170110D992000009450110A1960000B8
:200DFC00CD1301002C120020CC110020DC110020A4110020C21100202DE9F0430546880F9B
:200E1C00ADF1140DC0F0D6806C4C201D006840688768C668406800B18047002F08BF002E8B
:200E3C0008D010F0F3FB07B1B84706B1B04764480FF028FD634810F0D7FC634A40F60A0C24
:200E5C00A2F800C000205080117B00F00F0321F00F010B4313735060517B4FF0010808F0ED
:200E7C000F0721F00F0147EA01035373AB686E7C58801988A1F60201C9B141F21E07C91B5E
:200E9C0015D041F6E677C91B012920D8597E012E60F38201597606D0198B21F47C7141F45B
:200EBC003471198313E0198B60F30911F9E7597C012E60F38201597405D0198A21F47C71D0
:200EDC0041F4347102E0198A60F309111982D5F80890687461464E4600E03E46776817B108
:200EFC003B889942F9D17260737B00F00F0723F00F031F437773E76E3FB1FB681B88CF1FFE
:200F1C009F4224D0891F994221D02F8C07B3686205F12003588095F82C1000F00F0721F05C
:200F3C000F010F4385F82C7095F82D1008F00F0721F00F010F4385F82D705360517B00F046
:200F5C000F0721F00F0147EA0100507300E0A0601E4801688768C568009110226946406B61
:200F7C00019720F0784040F080500390184802950AF096FC10F04AFB16486061607F80B963
:200F9C001548006801684046884701280FD0707B08F00F0120F00F00014371730F4F67614A
:200FBC0005E00EF0CDF90028FBD010F026FE484610F01AFC05B0BDE8F083C046602200203C
:200FDC000100070601010E04A42C00204C1300501800002115340000E0010010B5E3000029
:040FFC000C2070470E
:20100000B41200001810000015AB0110FDB301106DC00110FDAE011099B5011000000000F7
:08102000000000002D0000009B
:20102800B01200003C100000B1C00110A9BF011067C0011069B80110000000000000000035
:041048003000000074
:20104C00B012000060100000BDC00110CDB30110D9BD01106DB3011000000000000000005B
:04106C00310000004F
:2010700000000000B421002004000000000000000000000020000000E8C901103000000055
:2010900028100000BC2100200400000000000000000000000C000000D8CA01101800000030
:2010B0004C100000C421002004000000000000000000000024000000F0CA011018000000B4
:2010D00000000000CC2100200400000000000000000000001000000018CA01102C000000C0
:2010F00000100000DC210020040000000000000000000000200000006CCA01102400000024
:20111000FFFFFFFFE42100200400000000000000000000002800000090CA011024000000E3
:20113000FFFFFFFFEC2100200400000000000000000000001400000008CB01101800000062
:20115000FFFFFFFFF421002004000000000000000000000058000000B4C901103400000030
:20117000FFFFFFFFFC2100200400000000000000000000001000000020CB011018000000FE
:20119000FFFFFFFF042200200400000000000000000000001C000000B4CA0110240000002A
:2011B000FFFFFFFF0C2200200400000000000000000000003800000044CA01102800000052
:2011D000FFFFFFFF142200200400000000000000000000005400000078C901103C000000C7
:0811F00002000000A834010018
:0411F80001000000F2
:0411FC0000000E00E1
:0412000000000F00DB
:0412040032000000B4
:0412080001000000E1
:04120C000821002095
:0412100000020000D8
:0412140000000000D6
:0412180001C90110F7
:04121C0000000000CE
:0412200000000000CA
:0412240008000000BE
:0412280000002200A0
:04122C00581F002027
:0412300000000000BA
:0412340000000000B6
:0412380008000000AA
:04123C00C8200020A6
:0412400000000000AA
:0412440000000000A6
:04124800080000009A
:04124C00000000009E
:04125000000000009A
:041254000000000096
:041258000000000092
:04125C00010000008D
:04126000F01F00205B
:041264000600000080
:041268000100000081
:04126C008C1E0020B4
:04127000000000007A
:041274000000000076
:041278000002000070
:04127C00000000006E
:02128000290043
:02128200010069
:02128400250043
:02128600300036
:02128800310033
:02128A002D0035
:02128C0001005F
:01128E00015E
:081290000300000054340100CA
:0812980000000000000000004E
:0412A0000000010049
:0412A4000000030043
:0412A80013C401105A
:0412AC0083150100A5
:0412B000B812000070
:0412B400B81200006C
:0412B8000000000032
:0412BC007C21002071
:0412C00061170100B1
:0412C4002000000006
:0412C8007633010078
:0412CC00EC31010000
:0412D00029C101101F
:0412D4001FF90000FE
:0412D800570A0100B0
:0412DC00A1C7011095
:0412E000A3C701108F
:0412E4000000000006
:0412E8003B32010094
:0412EC00D42E0100FB
:0412F000EC2E0100DF
:0412F400BC2E01000B
:0212F8000200F2
:0212FA000900E9
:0212FC000100EF
:0212FE000000EE
:0113000001EB
:04130400DD160100F1
:04130800F9FB0000ED
:04130C00090C0100C7
:04131000A9FF000031
:0413140067FC000072
:0413180065EE00007E
:04131C0045C30000C5
:04132000B7190100F8
:041324009DE1000047
:0413280015C70110D4
:04132C0025C70110C0
:201330002DE9F04FC14C04F108012046ADF1DC0D0DF006FB0FF20C2B0020064600904FF4DB
:20135000FC7101900122029682A303905846049609F036FF04F14C0528463146266210F0F3
:20137000ABFF04F1640004F17001E5600AF012F9A06170B930460090019040F209210290FB
:201390000322039083A30490584609F019FF10F08FFF04F1580004F17C010AF0FBF8606121
:2013B00078B930460090019040F20F2102900322039081A30490584609F002FF10F078FFE2
:2013D00060699B4910F00EFB70B130460090019040F215210290032203907FA30490584689
:2013F00009F0EEFE10F064FF0DF010FF0EA810F0D7F801258DF8485064278DF840508D484C
:201410000F970EA9119030460DF020FFB146C4F8C0607CA7C4F8C49004F1C801E06104F132
:20143000DC03C4F8B8100A22C4F8BC30A4F8B42078B930460090019040F22B2102900322F8
:2014500003903B460490584609F0BAFE10F030FFE06904F1B4012A4610F047FB70B130461A
:20147000009001904FF40C710290032203903B460490584609F0A4FE10F01AFF05A83146A6
:201490002422082310F010FF4FF47A7832270D206A4EDFF8A4A132680B9005AB04F594704B
:2014B000B8FBF2F18AB27A43514610F0F9FE0E2031680B9005AB04F5A670B8FBF1F189B20E
:2014D0004F433A46514610F0EBFE4E46A84640F2053029468DF8CE800DF1CE02ADF8546018
:2014F00002F0A4FB40F20630022115AA02F09EFB621C4FF44270294602F098FB04F1940284
:2015100040F207300F2102F091FB04F20510494620220BF037FC04F2051704F1940548466C
:201530002A5C401CC0B229180B78092B18BF082B02D11F2AC0F284808018C0B22028EFDB57
:2015500083E0C04670726F6A6563745F7A65726F2E6300C0496E697469616C697A696E67C0
:20157000207468652075736572207461736B2C2068617264776172652C20424C4520737488
:2015900061636B20616E642073657276696365732E00C0464572726F7220696E6974696159
:2015B0006C697A696E6720626F617264204C45442070696E7300C0464572726F7220696E90
:2015D000697469616C697A696E6720627574746F6E2070696E7300C04572726F7220726570
:2015F000676973746572696E6720627574746F6E2063616C6C6261636B2066756E6374695D
:201610006F6E00C04572726F72207265676973746572696E67206164634275662046756CA4
:201630006C2043616C6C6261636B00C0580C002089BA0000C98F000021CB0000E834010019
:20165000491C521E38460AF031F90097CDF80490584640F26121CDF808904246CDF80C907B
:2016700081A3CDF8109009F0ABFD894D10200622A023294605F014FD10200722A02329463F
:2016900005F00EFD10200822A023294605F008FD10200922A023294605F002FD102042467B
:2016B0001E23294605F0FCFC8DF8CF8014AF8DF8D0804046CDF850904FF481628DF8D190DA
:2016D00004238DF8D200734D00971020294605F0E7FC0DF1CF004FF4806243460090294634
:2016F000102005F0DDFC34A840F20242434600902946102005F0D4FC0DF1D100009029463F
:2017100040F203424346102005F0CAFC0DF1D200294640F2064243460090102005F0C0FC1B
:20173000C94910204FF0FF3205F0BAFCC74910204FF0FF3205F0B4FC1027DFF814A3C54815
:20175000C54A0097132351460190384605F0A8FC04F1F00032461523C0490090384605F0BD
:201770009FFCBB46BE4EBF48CDF800B00723514606F110020190384605F092FCC84607279D
:2017900048460097BEA30190F421029001220390B7A0CDF8108009F013FD2078B24D3590B4
:2017B0002878800010F02BFA0146B0488146C16041B34FF6FF700EF069FA2878800010F084
:2017D0001EFA0146C9F81010E1B14FF6FF700EF05DFACF49584609F1140200903B460191B5
:2017F000514605F05DFC009740460190FE21029001220390A2A30490AAA009F0E1FC359819
:2018100089F8000028782778800010F0F8F9C14E0146F160D9B14FF6FF700EF037FABE496C
:20183000584606F14C02009006230191514605F037FC0620009040460190EB21029001221D
:2018500003908FA304909CA009F0BAFC377028782778800010F0D3F9B04D0FF26C2A014627
:201870000029E96034D017E04E616D6520696E206164766572744461746120617272617914
:201890003A201B5B33336D25731B5B306D00C046D9FE0000194F00004FF6FF700EF0F6F904
:2018B000584600909E490191694905F11002062305F0F6FB0620009040460190AD2102907B
:2018D000012203906EA30490504609F079FC2F70634904F188004746C8600FF2042800905F
:2018F000012201974346029740F20311039760A0049709F065FC04F13400C9F808000090A4
:2019100040F20F110197012202974346039765A0049709F055FC04F14400B060FC2100900E
:20193000012201973E4602964346039662A0049609F046FC04F13C00A8600090B82101968E
:2019500001220296434603965046049609F038FC0DF15600282239460BF014FA714D0DF15B
:201970007E00282205F1110109F0A0FF0DF1A600282205F1390109F099FF01210DF15602C8
:20199000384605F053FF01200DF15602014605F04DFF022001210DF1560205F047FF384620
:2019B00001210DF1560204F0FFF801200DF15602014604F0F9F838460DF1560104F0CCFC82
:2019D00001200DF17E0104F0C7FC384628210DF1A60203F0D5FD012014210DF1560203F0D1
:2019F000CFFD514D69782878A1B904F1240129620EF070FD05F154070096024605F1440019
:201A1000019005F11C03029748490393AB78584605F046FB464904F12C02584605F040FBD9
:201A300020780EF057FD43490246584605F038FB20780EF04FFD40490246584605F030FBA1
:201A500037B0BDE8F08FC0460D0B0100D90D01009D0601003C3401006C15002021C80000C6
:201A7000041C0020D02F0100694F0020801B00206C65645F736572766963652E6300C04667
:201A90005265676973746572656420736572766963652C202564206174747269627574654E
:201AB0007300C046627574746F6E5F736572766963652E6300C046C0646174615F73657217
:201AD000766963652E6300C074656D70657261747572655F736572766963652E6300C04669
:201AF000526567697374657265642063616C6C6261636B7320746F206170706C6963617497
:201B1000696F6E2E2053747275637420257000C048300100381A002074300100001D00205A
:201B3000CC3001004C2D0100881100209BF100004910010051880110318101102DE9F04F7D
:201B50000F46CD4C0168E16241688068ADF11C0DE060C548A1608047C448E16A0160A1682D
:201B7000DFF810A34160E168DFF804938160CE49002FA346C1606FD03D68E8788DF80C006D
:201B900028798DF80D0003A810F086FBA86808B1C6490160E86808B1C5490160C54C287874
:201BB00020706878BE686070A878B268A0703178A2607368E1702E696360EA692662796878
:201BD000E2620868E06068696062A8697B68A062286A9E68206395F8240084F834001EB925
:201BF00000200FF0DFFA00E066617868C06818B900200FF0D7FA00E0A0617868006918B972
:201C100000200FF0CFFA00E0E0617868406818B900200FF0C7FA00E0206128692062F8689E
:201C300081680E6806B9D24ED0494FF001084E60C66881F8018036B900200FF0B3FA4D46D1
:201C50002E68F86801E04D462E6000685446FB68A0615868E06107E000200FF0A3FA4D46DF
:201C70002E684FF001085446361DC749366804F1080350205246B04710B1286880688047DC
:201C9000DBF808008047C24E002781463B46BF487770694660610422337038460EF012FA64
:201CB0000098B0F5801F0CD020B90EF047FD07F071F808E00DF0C0F90FF0F4FC0420708040
:201CD00001E00EF03BFD3846BA4EE0602B68B760986980477060AF4880F8008039464180A6
:201CF00014200FF0C7FDFF211422A0620FF0A5FFE01CFF2102220FF0A0FF14200FF0BAFD1A
:201D1000A54F38603868002114220FF096FF002000F052F940460DF00BFDA0480188FF291D
:201D300006D1022101807822001D00210FF085FF032010F0ADFA042010F0A6FA052010F00A
:201D50009FFA062010F098FA07200CF0F1F9944E0820307006F1240010F08AFA0CF0FEFBD7
:201D700006F1360A05200A2152460FF047F938B10020C0F10901401C0AF8011B0A28F8DBB2
:201D90003078102108F0EEFC2B68864909200DF10E025E68087001AB10200021B047A06AA3
:201DB000DBF80C10E2690A260A309DF80E30761E00F8013BF9D1921E4846E261884704F1C5
:201DD00020002B68626A059040461E69DFF8D88104F120034146B04710B12868806880470C
:201DF000B8460EF0E1FD5FEA000903D00AF036F94FF0FF39002643E00298616910F8062C4D
:201E1000A0F10C07032A03D1002939D0884737E0A16A9DF810C00A223046491E11F8013F33
:201E30009C4506D0521E00F10100F7D14FF0FF0A01E05FFA80FA2868BAF1FF0F00F1080073
:201E50001CD038790DF07CFEB979012904D0022904BF0299887001E0029908700299504688
:201E70000FF012F80CE0C04641490010F84400203022002050200020E41A00200068804712
:201E90002868C36904A902AA0DF10F0098470028B2D0D8F800007700C35B6BB9761CF6B2C4
:201EB0000A2EF8DB2BE0C046D0220100450601009D130100201F00200A2E20DADBF808009A
:201ED0008047D8F80010002231F807A0CA53DBF80C108847354850F8262066705146304690
:201EF00090470646FF206070DBF808008047D8F800107A5A16437E52DBF80C1088470EF085
:201F100053FD0746B9451AD0DBF8080007B9284FE169B94238BF0F1C804781462868016A2A
:201F3000206A8847626A28681F49059B521C6262C6683846B047DBF80C1048468847E76864
:201F50002968A0681431AFB9D8F800000A270026835B33B10969A06888472968D8F8000098
:201F700014317F1E06F10206F2D107E094210020C3D40000096988472968143109684FF093
:201F9000FF3088472DE7C0469D0B01001514010024220020282200202C2D0020841C00203D
:201FB0009C1600203E2D002089FB0000743101008EC2F528DC2C00202DE9F84FDFF8BC13F2
:201FD000DFF8BC23DFF8BC5308700821002010600D23DFF8B40340F232320170438082809A
:201FF000DFF8A8030560AC7EDFF8A4030470FF2CE97E417008BFFF292A7F82706B7FC370E4
:20201000AE7F0671ED7F457115D1FF2A08BFFF2B11D1FF2E08BFFF2D0DD1DFF878130A7826
:2020300002704B7843708A788270CB78C3700A79027149794171DFF860130278DFF85C835A
:20205000DFF85C93DFF85C730A70FF2543784B7082788A70C378CB7002790A71407948711E
:2020700088F8005088F8015088F8025088F8035088F8045088F805500020CB490880D9F8D4
:202090003440CA49607808702278C9493A70A0780870A2681079C74A411E1170E078C64988
:2020B000C64A0870E068106008B90FF07BF82069C34E306008B90FF075F83068DFF804A330
:2020D00001688847326852F8041F50468847BE48BE49CAF82000CAF824106069BC49086031
:2020F00008B90FF05FF8A069BA49086008B90FF059F8E069B849086008B90FF053F8DFF8A0
:20211000DCB2B74C9BF804000FF0B4FB0028206075D09BF80500B34E0FF0ACFB00283060F5
:202130006DD09BF80600DFF8C0A20FF0A3FB0028CAF8000063D09BF807000FF09BFBAB49A3
:20215000002808605BD039789BF80000891C484380B20FF08FFBA649002888604FD03878B7
:20217000002862D0BBF80210484380B20FF082FBA04A0028506042D038780FF07BFB9E4917
:20219000002808603BD0387840000FF073FB9B490028086033D03878182148430FF06AFBE8
:2021B000974A106058B3387840010FF063FB9549086020B3387800010FF05CFB9249086002
:2021D000E8B1387800010FF055FB90490860B0B13878302148430FF04DFB8D4A106070B179
:2021F0008C483978007848430FF044FB8A4A106028B138780FF03EFB8849086018B9BDE855
:20221000F14F07F0CDB94FF0000B09E00FF00AFB0021418081600180022303710BF1010BD5
:2022300039785FFA8BF08842F0D32268694F0120107121680D732068457321688D7320683E
:20225000C57321680D7400212068457400202268D172A0222168487103212068C280017278
:202270000720226850720021206881722821206801224182C276002021684877002220683E
:2022900080F85E200121226811770120216881F85D0001223068027131680D7330684573ED
:2022B00031688D733068C57331680D7400213068457400203268D172002231684871306810
:2022D00082724FF420703168C88008818A7401213368D974DAF800201573DAF800104D7399
:2022F000DAF800209573DAF80010CD73DAF8002015740022DAF800104D740121DAF800304E
:20231000DA720023DAF800201171DAF800104B71DAF80010C88008818B720520DAF8002065
:202330009374DAF800103E4AC874106880473968054608688047396851F8042F002090476A
:20235000D9F80C101C4B0A881878364902430A802846354A136898470C2134480FF084FF37
:2023700040460FF07DFF0FF077FFBDE8F44F034800784FF4005108F0F5B900BF6E4F002056
:20239000044F0020B63F0050604E0020084F00202C4E0020E81200503C4E0020344E002000
:2023B000143501007B4F00200C4F00206D4F00206B4F0020724F00206C4F0020F04E00208E
:2023D000F44E00207C4B002085180100A5180100F84E0020FC4E0020BC2B002070210020C0
:2023F000104F0020144F0020184F00201C4F0020E82C0020684E0020004F0020142D0020DF
:20241000804E0020844E0020884E00208C4E0020904E002051220020182D00201C2D00207D
:20243000EC1A0020544F0020F01A0020F84D00202DE9F84FD74CA178FF2904BF00200EF072
:20245000B1FEA0780FF006F9044604F1680504F190062968086810B10021E1830CE0A87B1A
:20247000002804BFA97E002906D13078002801BF207F0128608CE0832189E08B4118491CC0
:20249000618120460FF0E4FE01281EBFC2480178012904D121890020491CE08361814FF6C2
:2024B000FF77A87E01280DD1AA8B618920890FF0CBFE38B1218960894A1C93B298421BD0ED
:2024D000A88B0FE03078012816D17288618920890FF0BAFE80B1218960894A1C93B2984285
:2024F0000AD0708892B2904206D03818608180B20FF0A6FE3F18E78304F5967999F80400AA
:2025100020B120890021401CE183608104F12E07A87E01283ED12289A88B521C92B2904285
:2025300038D1608104F1860120460FF085FEA88C608400212177E183E08961894118A1813A
:20255000A88B21890FF07CFE8046B988288C6A8C01FB0808E88C8A4204BF3989884202BF08
:20257000AB8CF9888B4207D000090090AB8CA179520800200FF05CFEA87F3870698CB98035
:20259000A88CF8802046E98C39810FF04DFE0220A87601E0B7F80480B4F81EC022687F4E6B
:2025B000D2F80CE00CF1010000FB08F340F6C41000FB03F18E44C2F80CE03668DFF8E0E1BA
:2025D0003678BEF80080774AB609032E11D1D67BF60748BF4FF000080BD408F101081FFADE
:2025F00088F6012E12BF668AB9F8066006F2DC5600E0668A5E434FF4C87AB6FBFAF6761CF3
:202610006661AEF80080A3614FF0180894F806A084F820C008FB0AFADFF88CC1DCF800E0ED
:2026300023680EF1080656F80AB0C3F810B094F806A008FB0AFACDF800A0D3F80CB0D4F87E
:2026500014A0ABEB0A0ADDF800B046F80BA094F806A008FB0AFA56F80A609E600EF10C069E
:20267000A37908FB03F30EF10C0EF65C06F0F00646F002060EF803604FF0000ADCF800E03A
:20269000A6790EF1020308FB06F623F806A0474BA6791B68760103F1140AD4F814B05AF8A8
:2026B00006A00AEB4B0A03F1140B4BF806A0AD7E022D0BD1A5796D0103F1140697F800B00F
:2026D00056F805A000FB0BAA46F805A0BD88D27BA779D60737D508FB07F70EF10802D65990
:2026F000A6F5A86A0EF1080646F807A0A77908FB07F7D2592768511A3961BA6003F1140227
:20271000A1794901575807F5F667575003F11401A27952018958C9F800106843244A156BD4
:20273000A779296803F11C067F01401AA0F51670F0512049A07903EB40100B78012B14D138
:202750000121C17214E003F114027F01D1592A464243A1F5E661A2F516729142DDD30821CF
:2027700020460FF05DFD012011E0916A4A78C272A179DCF8000008FB01F2811822685160CF
:2027900007200D49087020460AF072FB0020BDE8F28F00BF684E0020784F0020084F00202E
:2027B000342D00205C4D0020804E0020844E002014350100734F00206F4F00202DE9F84F78
:2027D0000C46E00788B00BD50FF03CF828B100218160B348006800B1804784F001005CE1FD
:2027F000A0070FD500210023069105910491039302910191009101223C200FF00DFD84F0F0
:2028100002004AE11D256007A64EA74F40F18A80002107918B46A5488178FF2904BF002032
:202830000EF0C0FC386890F8A0000EF013FF80463868C07A98F82691022818BF032808F5E6
:20285000907A06D106F10D000FF0E2FC08B906F1070B514648460FF0D7FC88B33868807A10
:20287000002818BF012804D1314650460FF0C8FC04E05246494630460FF0BEFCFF2834D016
:2028900005FB00F906EB090506225146E81D0EF0D1FD16F80900396840F00209E81D079011
:2028B0000622887E00F0010088F8260105F1010A386800F1140108F590700EF0BBFD14E0F4
:2028D000514648460FF094FC78B15246494630460FF092FCFF2808D006F10D0145434819F4
:2028F0000FF096FC08B949F0020908F12C004B46017806914289120905920122B8F82210EA
:202910000491C0880799029140080390CDF804B0CDF800A0002098F806100FF07DFC84F02C
:202930000400BAE020060FD500210023069105910491039302910191009101223B200FF010
:202950006BFC84F08000A8E0E0044BD5F11D06F10D000FF049FC3868017A012918BF0429E1
:2029700031D1C17A02291EBF0329817E01292AD1817E00F1140230460FF03EFCFF2811D0F5
:202990004543354405F10D000FF042FC50B9E91D05F10D000FF028FC38680622E91D14309F
:2029B0000EF048FD3868C07A022818BF03280AD106F10D000FF02CFC28B938680622F11D01
:2029D0000C300EF037FD3A4842683A4800784FF480510CF053FB10B18E200AF0D7F884F445
:2029F00080505AE0A00505D50EF0EAFF324901200860FEE7600504D507F0E7F984F4806001
:202A10004BE0600405D581200AF0C0F884F4804043E0A10440D5294D286810B100200EF0F0
:202A3000C1FB274E4FF0FF3028600FF0D9FB3168244D51F8202F684690472349234B486AD9
:202A50008A6A009001920293C86A0268086A0392ADF810000A6B1178002904BF5068002898
:202A700005D19068002804BFD068002806D02970506868609168A960D068E86029463568B0
:202A9000134A2E6813486B46B0471349086004F0CFFB84F4005000E0002009B0BDE8F08F09
:202AB000204F0020AC450020104F0020684E0020784E00206E4F0020FC002043044F00207C
:202AD000F04E002068450020201F0020451801002C4D0020C02B0020EC4E00202DE9F04FAB
:202AF00009AFADF13C0D08900A92388809911E46ADF81800101C08BF002000F07581017806
:202B100000274FF0010B401C4FF0FF39B846DA460A9061E1252940F056810178401C0A90A2
:202B30002D2918BFADF8068004D10178ADF806B0401C0A9030291CBF4246434604D10178FB
:202B5000401C5A465B460A902A29CDF800804D4617D1049330680A9BCDF80890C01C20F0FE
:202B70000300001D306050F8044C1978002C009403F101000A9018D5ADF806A064420094AB
:202B900013E044460AE0600000EBC4004018A0F130040A9801780094401C0A90302901DBB8
:202BB0003A29F0DBCDF8089004932E2929D10178401C2A290A9011D13168CDF80880C91C23
:202BD00021F00301091D316051F8045C002D48BF454601782B46401C0A9011E045464346CC
:202BF0000AE0680000EBC5004018A0F130050A9801782B46401C0A90302901DB3A29F0DBC0
:202C100002930AB1224604926C2904D04C2918BFADF8048004D10178ADF804A0401C0A90EB
:202C30000BA8CDF80C800FAB07906429059300F0828069297FD0BDF818C075296DD078292E
:202C500069D06F2965D070294ED063293ED0732922D00A98401E0A90099801281AD9664979
:202C70000C68B5F1FF3F03D0A84288BF6D1C05D86FF00041814294BF0D1C099D029508A8B6
:202C90000AA932466B46A04709993F18091A0398099165E0454617E03068C01C20F00300C2
:202CB000001D306050F8040CBCF1010F014608B94FA0014607910EF0FFFC0390B5F1FF3FFC
:202CD0004FD0A8424DD9039528464AE03068C01C20F00300001D306010F8040C8DF82C0088
:202CF0005D46039558463CE0082035680490E81C20F00300001D306050F8041C08221023ED
:202D10000FA80AF09FFB401E079040210170079823E0082302E0102300E00A233068C01C2E
:202D300020F00300001D306050F8041CAA42BCBF2A1C04920DE03068C01C20F00300001D87
:202D5000306050F8041CAA42BCBF2A1C04926FF009030FA80AF076FB07900599081A0390B1
:202D7000009C241ABDF8065000945DB906E008A8202109AA0DF04FFD7F1C009C641E009494
:202D9000F5D50398401EB0F1FF3F03900FD1BDF8060001281CD10098401E009018D408A81B
:202DB000202109AA0DF037FD00987F1CF4E70798017809AA08A80DF02EFD0798401C07909B
:202DD00003987F1CDEE708A809AA0DF024FD7F1C0A980178401C0A9000297FF49BAE089836
:202DF00008B14146017038460FB0BDE8F08FC046286E756C6C2900C0F4340100BB482DE99D
:202E1000F84F0025BA4CB849056094F8E200002800F06581012800F02F81B64E02283CD05B
:202E3000032840F05C8151F8250CD4F8B8100029A0F5C060C4F8D400B8BF49420028B8BF2D
:202E50004042814226DA4FF08057D7F8A4014568B4F8BC0030214FF47F42082300903046F8
:202E7000A847D7F8A4014568B4F8C00004214FF4F802122300903046A847D7F8A401B4F81A
:202E9000D070456820214FF440620A2330460097A847012584F8D8501CE151F8258C0EF027
:202EB0008FFD2F4600B901273946934F38680028FCD0B146012609F10409D9F82CA03E60CB
:202ED00009B10EF083FDCAF30720C4F8BC000EF077FDAA4600B9B2463B68002BFCD0D9F8D0
:202EF00000B0BAF1000F3E6001D00EF06FFDCBF38440C4F8C0000EF063FDAA4600B9B24682
:202F10003B68002BFCD0D9F81C90BAF1000F3E6001D00EF05BFDC9F38120C4F8D000B8F575
:202F3000C061C4F8B81000F09C8094F8D80068B9C4F8D410D4F8C000C4F8C800D4F8BC70A3
:202F5000C4F8C470D4F8D030C4F8CC30D4F8D400D4F8BC30002854BF02226FF0010204F1DF
:202F7000C8010F6800EB40008018421000EB927207EBA2000860D4F8C810C4F8C430002984
:202F90001CDD1E293CDDD4F8CC0030B93429B4BF15391E21C4F8C81025E02A29BABFD4F8B9
:202FB000C8000B381E20C4F8C800D4F8C4003F28B4BF401C3F20C4F8C4001FE0D4F8CC00F8
:202FD000032812D011F10B0FC6BFD4F8C8000B30301CC4F8C800D4F8C4000028C4BF401EFB
:202FF000051CC4F8C450032508E011F1150FC6BFD4F8C8001530301CC4F8C800C4F8CC5094
:203010004FF08057D7F8A401B4F8C43030214FF47F424568374800930823A847D7F8A401D4
:2030300004214FF400321123456832480096A847B4F8C860D7F8A40104214FF4F802122327
:2030500045682C480096A847D7F8A40120214FF440620A23B4F8CC60456826480096A8477B
:2030700001E084F8D85040F2FF50404502D8801C40452FD2082030E051F8251C1F4F4BF24C
:20309000F5204843060A3868C0F3814001280CD11B480068006880470CF0B4FA0EF09CFC1C
:2030B0003111C010484306EBE03694F8E50030B91448006820F07F403618760801E084F846
:2030D000E5501148310C0660012741600F4D8760287808B90B2000E0052084F8E40003F0BF
:2030F0004FFEBDE8F88FC0462D400C402C500C402419002000A00C4000800C40B43F005068
:20311000EC010010102009403C600C40453301002DE9F84FB34D696884B0019121B905B045
:20313000BDE8F04F0FF058B80978DFF8BC82AF4EDFF8BC92DFF8BCA201291CBF0229042942
:2031500046F2A81741F64C5B05D0402918BF802900F096803CE10EF06FFC0028FAD00198B5
:20317000007805F0D5FB0090446814B900200EF019F89AF8010000285CD001F04FFA0EF0AB
:2031900069FA02900168009801914F680AF0A0FA022825D000990A78012ADBD196490A68EA
:2031B000137A19F80310317018B90FF011F85844A0602069C17E01F0EF01C1762069C17E90
:2031D00041F08001C1762069C17E01F0F00141F00201C1762269B96888484118D1614BE0AF
:2031F00001980178802911D10820854930700A78012A03D09AF80100022801DB38690CE0E6
:20321000D8F828003A690178D1720DE07C49072030700A783869012A02D10121C17203E075
:20323000D8F828104A78C2720298817901988AF80210C8E0009800288CD00199009A00784F
:20325000914205D101281CBF00200DF0ABFF15E0012840F0BD80684801680A7A19F80200AF
:2032700030700EF0B5FF3918A0680EF0ADFF18B90EF0AEFF5844A0600120A8700098A2E07E
:203290009AF8010000287AD001F0C8F90EF0E2F904462068029047689AF802000EF0DAF916
:2032B00003900EF0CFFB10F0070F3DD0A87805F02FFB019041680198009102990AF008FA46
:2032D000022831D001990A78012A2AD14A490A68137A19F80310317028B90EF079FF8344FC
:2032F0000098C0F808B000980069C17E01F0EF01C17600980069C17E41F08001C17600989D
:203310000069C17E01F0F00141F00201C176009AB9683A4841181069C16101210198A970A3
:2033300051E000200DF03EFF0398A04225D0029833490278802A12D10820307009780129F0
:2033500003D09AF80100022803DB38690121C17210E0D8F828003A690178D1720AE00720A1
:2033700030700978386901290EBF0122D8F828104A78C272A0798AF80200029823E00EF02B
:2033900061FB10F0070F29D0A87805F0C1FA04462078D4F80480012820D117490868027A4A
:2033B00019F8021031700EF013FF3918D8F808000EF00AFF20B90EF00BFF5844C8F80800B4
:2033D0000120A870204605B0BDE8F04F07F088BA05B0BDE8F04F00200DF0E4BE05B0BDE8BA
:2033F000F08F00BFE82C0020143501006F4F0020289A0110684E0020104F0020F0D8FFFF35
:20341000734F00202DE9F84FDFF8C8A20F460446F80B80F01281AA4EDFF89882B80F80F057
:20343000C380B80880F0B7803809C0F0388108200EF0EAFA002840F0A98080200EF0E4FA21
:20345000002840F0A380684608F094F9012803D10098002800F09A8095480078002840F03A
:20347000958000250124E8B20EF0EAF848B1837A3BB1847290F9090004FA00F0C0B20CF09D
:203490009BFA6D1C032DEED345464FF0030905F1AC0085F810900EF0A0FB87480168002384
:2034B00098461A46036050F8081C844940F8088C05F134000EF09FFB3068006B8047A968B9
:2034D000401A010BA869C1F1FF3282422CBF08444FF0FF30A861287F20B1E868A969B1EB9A
:2034F000C02F25D90DF040FC414600B12146081C1BD0744840F60901018043464380417B63
:2035100004F00F0221F00F010A434273017B03F00F0621F00F0146EA0102027343600EF085
:2035300069F9418811F4406FFBD02C774346AB616548016821F0020141F4007101606349BC
:2035500041F8049C41F230028A600C6050268E600C604FF4CA628A600C6041F80C4C444617
:20357000046002200CF014FC112007F05BF9287818B9686838300EF04AFB687F18B16C77AE
:2035900005200CF005FC524868612C740AF0D0FB27F0080783E005F08BFF45467435286865
:2035B00008B927F002077AE00EF01FFBB3468146DBF85400016804208847D8B1207CC8B1C7
:2035D000454608352868A8B10646DBF80000E568006B8047801BE060000BE060A84202D2A8
:2035F00040194008E06040F6C41181422CBFB0F5FA7FE16048460EF0E3FD0CF0C1F990B15F
:20361000A56920466FF4807100224FF00073A847464606F16C052868002808BF47F002075C
:2036300001D00AF085FB2046646900214FF080630A46A04727F0005731E00EF0D6FA51469E
:203650000E6846B306F1280106C90A234FF0E0450B40154008BF002B1DD106F1280191E852
:20367000300006F1280393E8060006F12803AA43A14383E806000EF0A3FDB16869B1002D05
:2036900008BF002C09D030692246B6F93C10B4682B46A04701E00EF093FD27F4804727B1B5
:2036B0005046394650300EF0BAFABDE8F88FC046F9230020602200201410044089E00000D2
:2036D0008C010010A42C0020000004600C410440B5A60000E02200202DE9F04FDFF8A0B25D
:2036F000804609AFFF200E461C460025ADF1240D97F8049007903F8830780592022805D1B3
:203710007068008842F60211814273D030460BF09FF85EA3069018B3401E0ED02846009044
:20373000019040F2262102900322039050A304904BA007F045FD0A208FE065A00090CDF887
:20375000048040F2212102940122039744A0CDF8109007F035FD5946142001F1040911E0D9
:203770005DA00090CDF8048040F213210294012203973BA0CDF8109007F022FD594628206D
:2037900001F10209B84214DD07EB040A50450ADBF06805992246C01908F088F8A9F800A0C7
:2037B0000698079013E0284640F231214CA30D2504E028464FF40B7152A30725009001906B
:2037D000029003900322049025A007F0F9FC0798FF280DD0DBF8080050B1066846B1E41969
:2037F000A0B20090069A059B41F230114046B047284632E0B9F1FE0F0CBF0FF22C190FF25D
:20381000441930460BF024F800904FF4FC71CDF804800122CDF808904DA3039510A00495D4
:2038300007F0CEFC0097059A4046234631460AF0BFF9594608310F68051C0DD167B1786823
:2038500050B130460BF004F800947C68059B024641F230114046A047E8B209B0BDE8F08F32
:20387000646174615F736572766963652E6300C041747472696275746520776173206E6FE1
:203890007420666F756E642E00C046C05772697465417474724342203A20257320636F6ED7
:2038B0006E48616E646C6528256429206C656E28256429206F666673657428256429206D1D
:2038D0006574686F64283078253032782900C04653747265616D00C0537472696E6700C063
:2038F000496E76616C69642076616C7565206C656E677468207761732072656365697665A4
:20391000642E00C0416E20696E76616C6964206F66667365742077617320726571756573C8
:203930007465642E00C046C02D20726573746F72696E6720626F6E6465642073746174654F
:2039500000C046C02D204F54412077726974650057726974654174747243422028434343D9
:2039700044293A20706172616D3A20256420636F6E6E48616E646C653A20256420257300C7
:20399000381A00202DE9F04F09AF1C46ADF1340D07903D7909923F88089108460AF0A4F82B
:2039B0004FF0000AFF21DFF880820A9000280B912DD0401E10D0401E51D0504600900190E6
:2039D0004FF40E7102900322039067A3049062A007F0F6FB0A20BBE0022001268DF816009A
:2039F0000DF1170205A9ADF81460504605F03CFF09990B78B346404600F1060913B19DF816
:203A1000172002B9534670A040F2212119E0022001268DF816000DF1170205A9ADF81460CC
:203A3000304605F021FF09990B78B346404600F1040913B19DF8172002B9534664A040F22F
:203A50000F218DF817300090079801905A4602944CA3039740A0049507F0B2FB1EE08DF83B
:203A700016A00122ADF8142009988DF8182000788DF817008DF8190057A6009607980190B1
:203A900040F2332102943FA3039733A0049507F097FB4FF0020B404600F10809F7B93E19AE
:203AB000022E14DA1EB9182D0ED0122D0CD008980999C0682246C01907F0F8FEF6B1A9F8E3
:203AD00000600A980B9019E04FF4137101E040F24321504642A34FF00D0A06E0504640F283
:203AF0003E2148A33E194FF0070A00900190029003900322049018A007F062FB0B98D8F847
:203B10000C701FFA86F9FF2818D0BFB13E68AEB15E460DF1170501270DF1160BD8F80C001C
:203B3000446800971BF8022B079841F210112B46A047AD1C761EF1D1D8F80C70CDF80090E7
:203B50000A9A099B3C68079841F21011A04750460DB0BDE8F08FC0466C65645F73657276BE
:203B70006963652E6300C04641747472696275746520776173206E6F7420666F756E642E73
:203B900000C046C05772697465417474724342203A20257320636F6E6E48616E646C6528D0
:203BB000256429206C656E28256429206F666673657428256429206D6574686F6428307818
:203BD000253032782900C0464C45443100C046C04C45443000C046C04C4544303100C046D4
:203BF000496E76616C69642076616C7565206C656E677468207761732072656365697665A1
:203C1000642E00C0416E20696E76616C6964206F66667365742077617320726571756573C5
:203C30007465642E00C046C0041C00202DE9FC41A0F2013714468846022F40F232819B4EBF
:203C50009C493F1F0F2F04D9143F4CD0BF1E1CD011E0DFE817F0CF00C9000D01FA00C1009E
:203C7000B9002601AF00A700100010009D008F007F00740066002A2880F21381B8F1020F47
:203C900040F00F818849238807E1B8F1010F40F00881F078012800F00481324620781179DE
:203CB000107189B9002800F0FC805078012800F0B580042800F0B280062800F0AF800528BF
:203CD00000F0AC80BDE8FC812078002840F0E9805078032800F0AF80072800F0AC800528B3
:203CF00040F0DF80A7E0B8F1010F40F0DA802078012840F0D68006F1EC000DF08BFD002884
:203D100040F0CF803446002004F13A0108F0B8FC002840F0C68004F1C8000DF086FFBDE81C
:203D3000FC81B8F1020F40F0BC8020880A28C0F2B880B0F5486F00F3B4808E1C17E0B8F13F
:203D5000020F40F0AE802088B0F5FA7F80F2A9800E460CE0B8F1020F40F0A3802088062860
:203D7000C0F29F80B0F5486F00F39B803E363080BDE8FC81B8F1020F40F0938020880628DF
:203D9000C0F28F80B0F5486F00F38B803C36EEE7B8F1010F40F085802078062880F281808A
:203DB000454E0EE0B8F1010F7BD12078042878DA0A3606E0B8F1010F73D12078082870DA22
:203DD00009363070BDE8FC81B8F1010F69D12078042866DA0836F4E7B8F1010F61D120783F
:203DF00004285EDCF61DECE7B8F1020F59D120880E36BCE7B8F1010F53D13079012850D025
:203E100032462078D178D07069B9002849D05078012803D0042818BF052842D101200DF071
:203E300021FDBDE8FC81207800283AD15078022818BF052835D110780CF04CFB1C490246F3
:203E5000102003F02DF9BDE8FC8106F1830500211F22284608F096FF21464246284607F0B7
:203E700025FD44463078B4710CF034FB002311E006F1640500211F22284608F083FF214669
:203E90004246284607F012FD4446307874710CF021FB01230094094901950246102003F0DC
:203EB000FFF8BDE8FC81C046D9FE00008811002099450110C8110020C21100200945011009
:203ED0002DE9F04F8A46814609AFDFF880829AF800003D791C460026ADF11C0D02283F88CD
:203EF000059206D1DAF80400008842F60211814267D050460AF04CFD01280ED030460090BB
:203F1000019040F28F110290032203904BA3049044A007F055F90A2081E060A00090CDF859
:203F300004904FF4C671012202944BA303973DA0049507F045F91FBB07EB040BBBF1020FDF
:203F500018DABBF1000F03D1182D10D0122D0ED0DAF80C0005992246C01907F0A7FCBBF18B
:203F7000000F1BD04046801EA0F800B019E04FF4D17101E040F2991130464CA30D2604E014
:203F900030464FF4CA7152A3072600900190029003900322049023A007F012F9FF20FF28F1
:203FB0000DD04046006850B1056845B1E419A0B20090059B4FF48A5101224846A84730460F
:203FD0002DE0FE2D0CBF4BA551A550460AF0E0FC00904FF4B971CDF80490012202954FA37A
:203FF000039610A0049607F0EBF80097059A48462346514609F0DCFD0646404607686EB9F6
:2040100067B1786850B150460AF0C2FC00947C68059B02464FF48A514846A047F0B207B0FD
:20403000BDE8F08F74656D70657261747572655F736572766963652E6300C046417474721C
:20405000696275746520776173206E6F7420666F756E642E00C046C05772697465417474F7
:20407000724342203A20257320636F6E6E48616E646C6528256429206C656E2825642920DA
:204090006F666673657428256429206D6574686F64283078253032782900C04654656D707A
:2040B000657261747572652054415500496E76616C69642076616C7565206C656E67746848
:2040D000207761732072656365697665642E00C0416E20696E76616C6964206F6666736527
:2040F0007420776173207265717565737465642E00C046C02D20726573746F72696E6720A1
:20411000626F6E64656420737461746500C046C02D204F54412077726974650057726974FA
:2041300065417474724342202843434344293A20706172616D3A20256420636F6E6E4861A7
:204150006E646C653A20256420257300081D00202DE9F04F8246DAF80070DAF804600C46E5
:204170005FEA0208ADF11C0D14BF00214FF0FF31DFF8409248460DF0D9FA002818BF0B2081
:2041900040F0158100258F488C4905708A48FC6052460DF030FD317B27200DF02EFDB8F14F
:2041B000010F07D0657002200CF004F806200CF001F801E0012060702078012840F2AA800F
:2041D000801E012868D9801E012833D9801E012800F2DE800DF009FD83464FF0805000F50D
:2041F000EE77D0F8DC01A378466A009321782846062908BF0120019001200290A068228A31
:20421000E1686368B047814658460DF0D9FFB9F1000F40F0BF80B8F1000F02D00DF0DAF8C8
:2042300002E050460BF06AFE002800F0A3803868806A2AE00DF0D9FC83464FF0805000F525
:20425000EE77D0F8DC01012306680093A168A27860682478AC46042C08BF9C466346B0472D
:20427000814658460DF0ACFFB9F1000F40F09280B8F1000F02D00DF0ADF802E050460BF087
:204290003DFE002876D03868406880474C49C1F8B0510D6081467DE00DF0A7FC83464FF0CE
:2042B000805000F5EE77D0F8DC01E38A86690093E0680190208B0290A0780390207D04903E
:2042D0000121059122782846022A08BF081CE1786268A368B047814658460DF071FFB9F156
:2042F000000F57D1B8F1000F02D00DF073F802E050460BF003FE00283CD03868006A80470C
:204310005FEA000946D1E078A168E28A236908F0FBF9BFE70DF069FC83464FF0805000F50A
:20433000EE76D0F8DC01E38AC7680093E0680190208B0290A0780390207D294604900120B3
:204350000590257805B9014608466268A368E178B847814658460DF033FFB9F1000F19D164
:20437000B8F1000F02D00DF035F802E050460BF0C5FD08B914201AE03068406980475FEA04
:20439000000907D1306802692169E078904781E74FF0FF39B8F1010F05D002200BF0F8FCF2
:2043B00006200BF0F5FC03480DF031FC484607B0BDE8F08FE41D00201C1E00205108010028
:2043D000504502403C2D0020F0B507460020ADF11C0D0E46044664A500900322019464A39C
:2043F0000294DA2103942846049406F0E9FE64A3B81E09D0801E00F09E80401E7DD0401E37
:204410005DD0401E3CD01BE0012E0CD00094019428460294ED2103940322049406F0D0FE9C
:20443000EE215AA393E00094019428460294E82103940322049406F0C3FEE92158A386E041
:20445000009401942846029440F2051103940322049406F0B5FE0094204601904FF4837118
:2044700002900322039054A30490284606F0A8FE01208DF817009DF817000028FBD170E0A0
:204490000094019428460294FF2103940322049406F096FE0094204601904FF48071029090
:2044B000032203904AA30490284606F089FE01208DF816009DF816000028FBD151E00094A8
:2044D000019428460294F92103940322049406F077FE009420460190FA210290032203906A
:2044F00040A30490284606F06BFE01208DF815009DF815000028FBD133E000940194284665
:204510000294F32103940322049406F059FE009420460190F42102900322039036A30490E9
:20453000284606F04DFE01208DF814009DF814000028FBD115E00094019428460294E02142
:2045500003940322049406F03BFEE1212EA30094204601900290039003220490284606F028
:204570002FFE07B0F0BDC0466D61696E2E6300C03E3E3E535441434B20415353455254007C
:204590002A2A2A4552524F522A2A2A003E3E20494E5445524E414C204552524F522100C001
:2045B0003E3E20494E5445524E414C204657204552524F522100C0463E3E20444546415563
:2045D0004C54205350494E4C4F434B2100C046C03E3E2057524F4E47204150492043414CAE
:2045F0004C2100C03E3E204943414C4C2054494D454F55542100C0463E3E204943414C4C0E
:204610002041424F525421003E3E204F5554204F46204D454D4F5259210070472DE9FE4F54
:204630008A4C617811B900200CF0BCFD0DF0D0FD06464FF0000806F6C4160027844DDFF81A
:20465000149211E038460DF005F8417951B12A68817902F8081008F101015FFA81F831469D
:204670000DF0AAFD7F1CFFB299F800008742E9DB6178884505D000200CF094FD82200DF055
:2046900097FD6078012840F0C380002701E07F1CFFB299F80000874280F2B48038460CF034
:2046B000D9FF064670790028F1D02968B0790A7890421CBF00200CF075FDB079A0E0286844
:2046D00010F809000CF0C6FF00684268DAF808109068814204BF3E4609F1010900F0A680E0
:2046F000A8E0286890F800B001224FF4C0710FE0636803F5AD76835C01FB03F901FB0BFE12
:2047100036F809C036F80E60B44538BF9B46521CFBB29A42ECDB4FF6FF700DF045FD064628
:2047300058460CF097FF4C490068D0F804A00868D94630F8192060684FF4C07300F10E01A2
:2047500003FB09F3C85AB2EBD00F52D2720840F6C410424300920027404A0190029217E025
:2047700058460CF077FF01680A78802A03D1DAF81030009A5A610978402908D102998079F2
:204790000A6802EB4011009800F5A060C8617F1C47452EDA2868C05D8345F8D001464FF4AD
:2047B000C073594363685A1803F5AD73D289595A53088B4202D2521A9045E8DA0CF04AFF73
:2047D00001684A68019B9168DAF808207008A1F6C41103FB00200DF0F7FC0028C0D01E480F
:2047F000006830F81910491C20F81910286810F807B01948026800215B4622F81310584693
:20481000BDE8FE8F00200CF0CDFC82200DF0D0FC617828680DF0C4FC286800780CF01AFFC3
:2048300000260068D0F804A04FF00109771CC145FFF645AFF6B2002E1CBFF8B200287FF4AD
:2048500050AF286890F800B065E700BF684E0020004F00207B4F0020142D0020844E0020F4
:204870002DE9F04385B011F8017B0446082F04F1FD0004F1FC0804F1760504F5A076844A6C
:20489000844BDFF8149213D0092F21D00F2F2FD0112F01BF287801286878102840F0D5800D
:2048B0000A78327648787076012184F83D11EBE00025521C4E5D5F5D3E434E55575D3E4011
:2048D00046556D1C082DF5DB204608F0CBFE74E00024571C0D5D1E5D35430D553A5D1540E2
:2048F0000555641C082CF5DB022088F80000CBE098F80100820704D410F0110F57D01A2208
:2049100066E008784A7800EB02203080CA78887800EB022070804A79087900EB0220B08082
:20493000CA79887900EB0220F080087A30724A7A887A02EB00227281C87A0A7B00EB0220E6
:20495000B0818A7B487B00EB0220F0810A7CC87B00EB022030828A7C487C00EB022070827F
:204970000A7DC87C00EB0220B082487D897D00EB0120F082494801788A0658BF1A2212D500
:2049900004F5A670049071890391307A029021890191F0880090B38872883188204608F00A
:2049B0008FFBE0B11E2298F80100410710D40F2088F8150020460DF0EFFB002864D199F8D0
:2049D000000005B0BDE8F0434FF4804105F0CABE204605B0BDE8F0430F210DF0D9BB70880D
:2049F000A882B188E9820221F0882883297400206882A18EA88AC91DE981618EB0EB510F51
:204A100002BFE88AA18E884202BF288BE18EB0EB111F18D02878012804BF68780F2805D04C
:204A3000687918B10F21A972FE2127E0FC2120460DF0AAFBF0880090B38872883188A07917
:204A50000DF09EFB20E0102118E0491E20460DF093FB032F18D1A878042818BF0D2813D1D8
:204A70006E78142E18BF0E2E0ED12F7820460DF07FFB012F06BFAE72FD213146204605B0C3
:204A9000BDE8F0430DF080BB05B0BDE8F08300BFEC4D0020042D00206E4F0020144E002061
:204AB00010B50B7884074CBF43F0020303F0FD0304064CBF43F0800303F07F0304074CBF87
:204AD00043F0080303F0F70384064CBF43F0200303F0DF0310F0AA0F0B7003D0107840F01C
:204AF0000C0003E018B9107800F0F300107010BD2DE9F8430D4600272878022814461E46DB
:204B100067D1696808784978DDF8208000EB012080B25FEA08021CBFB0F5285F0B205BD1D7
:204B30004FF42851401A08D0401E21D0401E2FD0401E25D0401E31D04BE0DDF82490E86815
:204B50000DF07DF880B2A0EB08024A45BCBFA0EB08001FFA80F909EB0800162806DAA6F825
:204B700000904A46E86800EB08010DE00D2732E0E8680088022131802070000A60702AE06E
:204B9000062030800622E96820460CF053FC22E001203080E9680A7822701CE0E868B0B120
:204BB000082131800288227003881B0A63704188A1704288120AE270818821718288120A99
:204BD0006271C188A171C088000AE07103E0308001E0378001273846BDE8F2832DE9F047BC
:204BF0000F46814638780024022890461D466DD17868089E01784078DFF8D8A001EB002101
:204C100089B24FF42852891A06D0491E29D0491E4ED0491E39D059E0F8680DF010F880B2EE
:204C3000B04204D3A919162903DB0D244FE007244DE0FB682A46414698190CF0FBFBAD1941
:204C5000F868ADB2C5F11602002140190CF0F5FFDAF8000000281CBF0268002A37D00021BC
:204C700023E08EBB022DE0D198F8000098F80110FA6800EB01201080DAF8000000281CBFF4
:204C90000268002A23D001210FE0EEB9062DCCD1F868062241460CF0CDFBDAF80000002828
:204CB0001CBF0268002A12D00321484690470EE056B9012DB9D198F80000002813BF0128A2
:204CD000F9680870802402E00B2400E001242046BDE8F087242D0020FEB57748774A007893
:204CF000774C784B78490D2840D8DFE800F0E307070707DBDB5EDB9A9AB8B8BF146041F261
:204D1000044572494C88AC421FBF4E8BAE424F8EAF4203D11D806E4810607AE0002C6D4D71
:204D30001C804FF4A05639D0641E3CD0641E35D040F2FE37E41B1AD0241F012C1DD94FF477
:204D50007F77E41B1BD04FF44067E41B0FD0A41E012C0CD9241F0AD0641E012C0DD940F2E3
:204D7000F937E41B012C19D9241F08D09AE0022814BF1E80584D15604BE0584DFBE7584839
:204D900003681C7A012C05D141F20240488048834886F0E74E804E834E86ECE700200CF0F0
:204DB00001FA832082E08F2080E04E488178FF2954D0146018204C4C41432068851C40F2D6
:204DD00004466C5A1C80A41B012C484B72D94FF47F76A41B0FD04FF44066A41B032C84BF5D
:204DF000641F012C0BD9A41E012C63D940F2FD36A41B08D103E0801C41F2014444521360E7
:204E100004F08EFE05E000200CF0CCF985200DF0CFF903B0BDE8F04035480078012105F03E
:204E3000A1BC40F204424888188090421CBF41F2084290423ED041F60402904211D12D4CB1
:204E50002D482E4B00680025CDE9004502222C4C256855F8086FB0472A490880F7BD488869
:204E7000188000200CF09EF985201FE04888188002280DD940F20442801A1BD040F6FC721A
:204E9000801A05D0083815D04FF47F72801AE8D1887B801CC2B2B52AA8BF662088730020ED
:204EB0004880F7BD00200CF07DF98420BDE8FE400DF07EB9F7BD00BF6F4F0020204F002039
:204ED000BB1B0100504F0020CC4C0020204A002059550110615A0110B1540110755B0110E8
:204EF000104F0020684E0020804E0020313901106E4F002002000080EC4E002071FE0000BC
:204F1000F04E0020424F00207CB5894D144602460026A2F58062182A1AD8DFE812F0FE002F
:204F3000F800F100E900E200DC00D500D0001900C500BE00B700AE00A300190019008000D6
:204F50006F00680054004C00420039002C0024002A2880F28580022940F0828021880AF036
:204F7000B3FF0646E1E0012940F0DE80002C00F0DB801135A6E0102940F0D680002C00F08C
:204F9000D38028465030102221460CF053FACCE0012940F0C980002C00F0C68029468D1D14
:204FB00090E0262940F0C080002C00F0BD8005F160002622E8E7012940F0B680002C00F040
:204FD000B3806D1D7EE0602900D13CB9012940F0AB80002C00F0A8800D3573E005F186007D
:204FF000214660220CF026FA012068739DE0012940F09A8020780DF0B7F896E0012940F09B
:2050100093802078022800F38F800C3528702078022814BF301C01200DF0A2F885E00729A2
:2050300040F08280611C684606220CF0E5F820786946324605F0CEFF04460A2C10DA0DF01A
:205050008BF838B9204603F089FD0BF0C1FC09F085FA6AE02A46012002F12C05285564E0FD
:20507000022662E001295FD1A87B21780028A9735BD12078012858D1E9E7012954D124788B
:20509000072C51DB102C4FDC0B3537E001294BD124780A2C48DA093530E0012944D1247880
:2050B000022C41DA083529E000293DD10DF054F810B90CF053FAC8E701240F351EE001297F
:2050D00032D10A35247819E001292DD12478022C2ADAED1D12E0102926D12B4603F1400022
:2050F00051E7012920D12478022C1DDA2D1D05E0012919D12478042C16DCED1C2C7014E0F2
:20511000012911D12478022C0EDAAD1CF6E702290AD120881435288007E0012904D12478FA
:20513000022CD8BF6D1CE9DD182630467CBDC0469C1600202DE9FE4F05467B480024006889
:205150000094C00905D37948007810B920200AF0EFFE012D40F0E280DFF80092D9F8DC000B
:20517000012840F0D8800220C9F8DC000CF0D2F801200AF0DDFE5FEA000805D00120C9F8EB
:20519000DC000CF0D3F8CBE00CF045FDA34602906748684DC0F800B0A86A016801208847C1
:2051B000012804D1584608F0C9FA012000906248624FC0F800B0386811200CF01FFC00B17B
:2051D000012410200CF01AFC08B144F002040F200CF014FC08B144F004040B200CF00EFC04
:2051F00020B12868564E016B308888470A200CF005FC20B12868534E016B308888475248F1
:20521000012606602868816944F0200088474F4806600CF0EDFB00F001010191400814D2C1
:20523000286A81684A4888478246BAF1040FF7D0BAF1010F04D1286A4268454803219047E1
:205250004449086820F003000860584600F088F82B683868986B8047019801280CD0BAF172
:20527000010F04D1286A42683948314690473949086840F0030008602F480660286841698A
:20529000204688470B200CF0B9FB20B128682C4BC16A188888470A200CF0B0FB20B128684A
:2052B000284BC16A18888847274806600322C9F8DC20264BC3F800B02868416B20468847CD
:2052D0000128F9D1386804200AF032FE0446184806603868144800688009FBD30098012851
:2052F00002D1304608F02AFA0CF070FB08200AF01FFE07460298C9F8DC600CF029FF16482D
:20531000008807F087FF0CF011F857EA040018BF4FF0FF3804E06FF0040801E06FF0010849
:205330004046BDE8FE8FC046141009400C1A00200C400940B8010010000222432C20094092
:205350009E2E01009A2E01002820086080010443004003402422084040330100241900204D
:205370002DE9F84FDFF804B20746ABF13500DFF8F0810068800880F0E2807548006800687E
:2053900080477E490831D1F8009000254FEA29715FEA995201F101010AD2C0F13E0210F1EF
:2053B0000A0F4FEAE202D8BF08229142B8BF111C684BD3F87C21C2F30462162AA8BF203A38
:2053D0001B68C3F30443162BA8BF203B9A465218162A05DA12F10A0FB8BF6FF0090200E0F4
:2053F00015225D4B5D4E02F01F0141F4F8511980316811F0030F18BF0125C90828BF45F054
:2054100002050FB145F00405434693F90710411A052904DA9979A94208BF99886FD0DFF8E9
:2054300044E10F28A0F10F0829DB08EB0011A1F1F0084FEA28210091072984BF0721009187
:20545000062988BF06215EF821600424774604EB81043C594FEA950CA41BEE0804F0FF0157
:2054700024BFC4F3072631446F08AE0824BFC4F3074631446E0828BF01EB146104E0002194
:205490004FEA950C6F080091009C5EF824E05FEA5C060EF0FF0424BFCEF3072634447E08A9
:2054B00024BFCEF3074634446E0828BF04EB1E64009E89B2A8EB06267143803104EB112484
:2054D000AAEB02010029D8BF0121342209F0FF074A4391B24FF6FF727943B1FBF4F18A424E
:2054F00038BF111C802889B2998005DA10F1800FB8BF6FF07F0000E07F20D8719D711A4880
:2055100000681F2918604FF0000008D340F2FF128A4206D24908401C8A42FBD301E01F21EA
:205530009980134F0F39090940EAC10047EA0001CBF8FB1F0026CBF8FF6FBDE8F88F0D49B3
:205550000D4F434608200F609B1D1870BDE8F88FEC0100103C1100506E6208402422084013
:205570000C2D00209C130050082009403500094000E7A48030100940FDFDA400AC3F005067
:205590002DE9F04F804C0546E06893460F462E1CADF1140D16D0761E06D00095002040F2D9
:2055B000311139A305465BE00646002047A240F22D1104F1040804F1100914254FF0010AE0
:2055D00084460AE0002043A24FF4917104F1020804F1240928258446E246009201970346EA
:2055F00002900122CDF80CC023A0049330A305F0E7FDBD422FDB484659463A4606F056F954
:20561000BAF1000FA8F8007032D0B078002808BF32A103D001280CBF37A13DA13088002768
:2056300000903D46012201913EA3029740F24111039511A0049505F0C3FD06200090534FA5
:20565000207804F14C0349462A4601903046029705F0C0FB0CE0009700204FF4A5713CA334
:205670000190029503900322049003A005F0A8FD05B0BDE8F08FC046646174615F73657247
:20569000766963652E6300C0536574506172616D657465723A20506172616D65746572201A
:2056B000232564206E6F742076616C69642E00C0536574506172616D65746572203A202533
:2056D00073206C656E3A20256400C04653747265616D00C0537472696E6700C01B5B3333C0
:2056F0006D4E6F74692F696E642064697361626C65641B5B306D00C04E6F746966696361D1
:2057100074696F6E20656E61626C656400C046C0496E6469636174696F6E20656E61626CEA
:20573000656400C0547279696E6720746F2073656E64206E6F74692F696E643A20636F6EA8
:205750006E48616E646C652025782C20257300C04C656E677468206F75747369646520621D
:205770006F756E64733A204C656E3A202564204D696E4C656E3A202564204D61784C656EE9
:205790003A2025642E00C046381A00205D7C00002DE9F0410446804DA178A869ADF1180D4C
:2057B000891F00F0F280C91E00F0DD80491E5FD0491E48D0C91E3CD0481E40F0E980287AF2
:2057D000697AB8B96878002831D0A0880CF0BCFC071C00F0DD80A07A40080FD3787968B1C2
:2057F000E168890A0AD2B91D01AA05F0F3FB0A2804D10321A0880CF0A3FCC9E0287B022819
:2058100002D1A07A0009F4D3A088797904F1080201F07EFBA869002800F0BA804368002BFF
:2058300000F0B68000210A46A0889847B0E00521E0E7002800F0AC804368002B00F0A8800B
:2058500062780221F0E70CF005F8002800F0A080A86950B1076847B1206900906189227B1A
:20587000637BE01C3C46A04792E060890121C2E767784FF00008002F66D1A179490863D382
:20589000EF69002F60D101A841460E220CF0D5F9A0880CF059FC071C7AD0606940B978797D
:2058B000B91D06228DF80A0001A80BF0C3FD19E06669307C062206F111018DF80A0001A80A
:2058D0000BF0B8FD07F10C00B91D06220BF0B2FDB81D062206F111010BF0ACFD307C40F0D6
:2058F00002007871A079C00839BF387900F0FD00387940F002003871A079000939BF3879DF
:2059100000F0DF00387940F020003871A1799DF81120C1F3800010438DF81100080905D318
:205930009DF8110040F008008DF8110001A8214600F02AFC28B92878022104F013FF40468D
:2059500027E0A8694FF0150810B3436803B3A088627801219847B8F1000F19D0A86943683F
:205970000321424660E7E078211D002205F032FB0A280DDA410001EB800004F10C0225302C
:205990000421C0B203F0A0FC02E0A08808F0B0FF012006B0BDE8F0819C1600202DE9F04F0C
:2059B000044672488E46016894461F46BEF1000FADF13C0D4DD0BCF1000F4AD09EF8002009
:2059D00001209040014244D0BCF80000B0F5C15F32D1DCF81400DCF81860654BDCF81C50CF
:2059F000DFF890A10B904FF003080DF128090C9618680D95C0F3036B59F8046FCEB1002132
:205A1000351F05200B4655F8042FB2F1FF3F10D0924506D0401E01F1040103F10103F2D1AE
:205A300007E0052B05DA705820F4702040EA0B407050B8F10108DFD1C4F804E0C4F808C039
:205A50000CF0D3F84C4D8046287820B140460CF0B7FB002087E002F031FE4849086840F092
:205A70000200086007A80BF0CDFE002605F1D00007AA4349099609F001FE424905F5827000
:205A900007AA09F0FBFD07A80BF084FEFF20192107AB3D4A089005F1340009F057FD3B4A02
:205AB00005F150001A2107AB09F050FD3849324605F18800134608F0A3FE3649324605F107
:205AD000AC00134608F09CFE334A05F12000042133460AF0F1FE0E2005F018F805F1740068
:205AF0000BF072FD05F16C000BF06EFD2E740523EB60072085F898012E77AE616E77284908
:205B1000AE60264A69612B781670581C287040460CF056FBB1461FB968460BF073FD6F4688
:205B300038682060388A6082012060747B6813B940F6C4130646E3601A48A0612674606193
:205B5000F86800B1A061B86800B160614946582204F1200007F016F904F1380049460AF0B7
:205B700053FD6C6020460FB0BDE8F08FD4210840541300500200F844602200200020094073
:205B90006D130100D5A2000089E0000059D90000590D01000D110100C9EB0000362D0020A5
:205BB000B5A60000E3AF00002DE9F0477C4C2369E5680F4691460FF2D40A011CADF1180D0F
:205BD00011D0491E07D000220746154640F2471133A328464DE043A040F24311A61D04F1B0
:205BF00002081D4605E041A04FF49C71261D04F1010800900197002002900122039032A36C
:205C10000490504605F0DCFA022F2CDA5FB3404649463A4605F04AFE3780A878002808BF9E
:205C300034A103D001280CBF39A13FA12888002700903E460122019140A3029740F2571148
:205C500003965046049605F0BBFA07200090554F207804F11403414632460190284602972B
:205C700005F0B8F80FE0012200204FF4B0713EA31546009701920446029503220390504644
:205C9000049405F09DFA06B0BDE8F087627574746F6E5F736572766963652E6300C046C0BB
:205CB000536574506172616D657465723A20506172616D6574657220232564206E6F7420AF
:205CD00076616C69642E00C0536574506172616D65746572203A202573206C656E3A2025F9
:205CF0006400C046425554544F4E3100425554544F4E30001B5B33336D4E6F74692F696E28
:205D1000642064697361626C65641B5B306D00C04E6F74696669636174696F6E20656E61A9
:205D3000626C656400C046C0496E6469636174696F6E20656E61626C656400C054727969A1
:205D50006E6720746F2073656E64206E6F74692F696E643A20636F6E6E48616E646C6520D9
:205D700025782C20257300C04C656E677468206F75747369646520626F756E64733A204C02
:205D9000656E3A202564204D696E4C656E3A202564204D61784C656E3A2025642E00C0467B
:205DB000801B0020A17900002DE9FE4F0E468246307AC10693461F464FF000090CD5584609
:205DD0000CF0BAF9030000F0E8800A223146504698475FEA00094DD130780C9D0D9CDDF852
:205DF000388002281AD170680178407801EB002189B24FF42052891A012910D9891E3AD059
:205E1000491E14D0FD397AD0491E00F08180491E6DD0491E73D0491E00F09580ABE0002CDE
:205E30002AD1F068017829800278416887E0002C22D101202880F1680A783A7000217089CC
:205E5000401C80B20CF074F9298860B10278921C51182980418979704289120ABA704168D2
:205E70000278F81C6CE0091D298004220021781C0BF0E3FE93E0002C66D1F06806880421D1
:205E900029803E70320A7A700DF1020130460CF04FF9040021D0D4F80C80BDF802204FF651
:205EB000FF766B4631460CF03FF940B9237862683C4802210CF034F908B9ADF8006098F87D
:205ED000000002280BD1D8F804100222381D0BF0B1FA2888801C288001E0ADF80060BDF81A
:205EF0000000B870BDF80010090AF97057E0002C2AD1F068016850460BF03BFC02E01CBB89
:205F1000F0680088022129803870000A787046E0F0680BF094FE80B2A042B8BF4FF0070946
:205F30003DDB844208BF002205D008EB04028242B4BF4246021B2A8092B2F0680119384602
:205F50000BF078FA2BE014B14FF00B0927E0F0680721298002783A7043787B704188B970B5
:205F70004288120AFA7001793971C2887A71C088000AB87113E058460CF0CEF85FEA000948
:205F90000BD00F980290CDF8048000942B463A4631465046C847814601E04FF00E09484667
:205FB000BDE8FE8FAA3001002DE9F04F754F1E46ADF1340D01914FEA960902923D68009035
:205FD000710809F1020221F0010105EB8200091D0390901805EB80000490501805EB800375
:205FF0008018059305EB8000079026F0030000F1080802EB080005EB80034018089380184D
:2060100005EB80000990C6F39C008000083002EB4000411805EB800305EB810B0A938918A7
:20603000831805EB8104404405EB8303C6F3990105EB80008900069038680B930A010021FA
:20605000803206F09FFE4849DFF820A109682846AAF1880290470746B94518BF6FF0010065
:206070007ED128465546394605F168029047019831460AF069FF002818BF012070D1029895
:2060900031460AF061FF002818BF022068D103980199A84704980299A8470098816805985D
:2060B000A847334B0399059A20469946C847012802D1BD0066590EB1032051E020460021C2
:2060D000424606F05FFE0499059A2046C847012801D166590EB1042042E0274B254D0798E2
:2060F00003991E462A46B047089804992A46B047079909980A46B0470A980999079AB04721
:206110001E4D0B9807992A46B04720460021282206F038FE1A4B0A990B9A20469946C8475C
:20613000203520462A460146C847089958460A46B04706980021424606F024FEFDB258469C
:20615000002D0CBF0122FAB20021635C455CAB4218BF052004D1491C521EC9B2F5D10020F3
:206170000DB0BDE8F08FC0468C4F0020B9DB0010C9DE001084200020F9E00010902F010065
:20619000C9E60010884F00202DE9FF478146714CDFF8BCA1E069884600284CD1B9F1000F10
:2061B00000F09480B8F1000F00F0908048460AF0DBFA05460A2D23DAD8F814702574002F1B
:2061D00037D0680010216A4600EB85002330C0B20AF014FF90B950460778FF2110226846BF
:2061F0000BF042F850B93FB999F80600494600F001000BF08DFF01E00120A074E0691AE062
:2062100004F1E6070A2600253846FF2106220BF02BF868B9761E07F10E0705F10105F3D1D1
:20623000607C002804BF0A2020744FD094F836502574E06900E0257C0A2D47DA002835D1AF
:2062500068000E214A4600EB85002030C0B203F03BF8207C08F0FCFC6846FF2110220BF028
:20627000ECFC207C10216A467030C0B203F02CF8217C0E220801A0EB410000194946E63020
:206290000BF0D8F8D8F814206AB15046007840B9107C02F11101002300F001000BF034FF2A
:2062B00001E00120A074C4F81C804CE08268002A3ED10269002A2FD142690ABBC2683AB9EF
:2062D000A07B08B109F0EEFF0AF089FE01203BE06800102100EB85002430C0B202F0F4FF83
:2062F000E769217CFA68480000EB8100103225300421C0B202F0E8FFE1690020C86022E0F0
:206310006800102100EB85002330C0B202F0DCFFE1690020486116E068001C2100EB8500B4
:206330002230C0B202F0D0FFE169002008610AE068001C2100EB85002130C0B202F0C4FF7E
:20635000E1690020886000200090BDE8FF87C0465A4F00209C1600202DE9F0476D4CE5680C
:206370008A460FF2C409ADF1180DD8B1411E0CD0009000200190F72102900322039030A372
:206390000490484604F01CFF4BE03EA0009001220020F32104F10608A61C034601920746DE
:2063B0009C460BE03BA001270090E92104F10408661C3A460020019703468446029003936D
:2063D000484629A3CDF810C004F0FAFE5046007801223070A8F800201FB3A878002808BF60
:2063F0002FA103D001280CBF34A13AA12888009001913DA300210F4602914846039740F231
:206410000711049704F0DCFE0620009020780190414804F1100331463A460290284604F090
:20643000D9FC06B0BDE8F08774656D70657261747572655F736572766963652E6300C04610
:20645000536574506172616D657465723A20506172616D6574657220232564206E6F742007
:2064700076616C69642E00C0536574506172616D65746572203A202573206C656E3A202551
:206490006400C04654454D5045524154555245205441550054454D504552415455524500DC
:2064B0001B5B33336D4E6F74692F696E642064697361626C65641B5B306D00C04E6F7469BA
:2064D0006669636174696F6E20656E61626C656400C046C0496E6469636174696F6E206527
:2064F0006E61626C656400C0547279696E6720746F2073656E64206E6F74692F696E643A9E
:2065100020636F6E6E48616E646C652025782C20257300C0001D0020CD7600002DE9F04F1B
:206530006C4CA068ADF13C0D002800F0858004F1B80B4FF00D0A4FF00A094FF0010878E087
:206550000BF0DEFD2178CA0002EB41125A44B2E8E01004ABA3E8E010E0CAE0C364CA4F1C7A
:2065700007F01F0183E8640004F10C05627821708A4208BF84F802800BF022FEBDF83630ED
:20659000A6212FA228460AF07CFE28460BF094F8049F4619B8B20AF087FC4AA20CCA02F0DF
:2065B00015FE4AA20CCA02F011FE08F02FFC009025A2A91B3B0C3046A6310AF062FE28465B
:2065D0000BF07AF8BDF834704019BF1E04D07F1E14BF21A229A200E031A206990091059B5A
:2065F0002F1A07F1A6010AF04CFE28460BF064F84219A0682946521B0BF095FA09980090A0
:206610000A9E01960B9F02970C9B0393089B079AA62128460AF035FE28460BF04DF84219FC
:2066300002F801AB02F8019BA0682946521B0BF07AFAA078002883D00FB0BDE8F08FC0463F
:2066500023253036752000C05B2025642E25303375205D2000C046C01B5B33323B316D4998
:206670004E464F3A201B5B33303B316D2825733A256429201B5B306D00C046C01B5B33319C
:206690003B316D4552524F523A201B5B33303B316D2825733A256429201B5B306D00C04696
:2066B0001B5B33333B316D5741524E494E473A201B5B33303B316D2825733A256429201B0C
:2066D0005B306D00000000000000F03E0000000000408F40A00600202DE9F04FADF1240D8B
:2066F000079001F0EBFF5F4800780AF0E3F95E4D0024012806D90C3804D0401E0ED0401E9A
:2067100009D006E00AF0E2FD022804BF01210C1C06D0696805E005211F2401E00321072475
:206730006960524A1068C0F38150012806D152F80C0C0127020E07FA02F004430BF052F8CF
:2067500005F1440AFF2253464018401E471C28607F1E03F8012BFBD1079A1268002602F0C7
:20677000FF03FE2B1DD0DDF81CC0964633460EF0FF07FF2F0ED0B84205D3B94203D8012210
:20679000BA40144201D0022069E016430EF0FF020AF802305CF804EF5B1C0EF0FF07FE2FE2
